:020000040800F2
:1000000000280020DD0E0008B5020008B702000835
:10001000B9020008BB020008BD0200080000000091
:10002000000000000000000000000000BF02000807
:10003000C102000800000000C3020008C502000859
:10004000250F0008250F0008250F0008250F0008C0
:10005000250F0008250F0008250F0008250F0008B0
:10006000250F0008250F0008250F0008250F0008A0
:10007000250F0008250F0008250F0008250F000890
:10008000250F0008250F0008250F0008250F000880
:10009000250F0008250F0008250F0008250F000870
:1000A000250F0008250F0008250F0008250F000860
:1000B000250F0008250F000800000000250F00088C
:1000C000250F00080000000000000000250F0008B8
:1000D00000000000250F0008250F000800000000A8
:1000E000250F0008250F0008250F0008000000005C
:1000F0000000000000000000000000000000000000
:0C01000000000000000000005FF808F1A3
:10010C0010B5054C237833B9044B13B10448AFF345
:10011C0000800123237010BD0C00002000000000A3
:10012C00800F000808B5034B1BB103490348AFF31C
:10013C00008008BD0000000010000020800F0008A7
:10014C002DE9F04188B0002404940594069407949A
:10015C00204B9A6942F010029A619A6902F01002DF
:10016C000192019A9A6942F020029A619A6902F00E
:10017C0020020292029A9A6942F004029A619B69E7
:10018C0003F004030393039BDFF84C8022464FF4E7
:10019C000051404600F092FD104D22461F2128468A
:1001AC0000F08CFD4FF4005304930127059706943F
:1001BC000226079604A9404600F070FC1F23049306
:1001CC0005970694079604A9284600F067FC08B02A
:1001DC00BDE8F08100100240001001400008014011
:1001EC0072B6FEE708B50A480A4B03604FF4E133D8
:1001FC00436000238360C36003610C22426183610E
:10020C00C361036200F03CFE00B908BDFFF7E8FFD4
:10021C00280000200038014000B591B028220021B0
:10022C0006A800F09FFE002301930293039304930E
:10023C000593012206924FF4803307930A9202220F
:10024C000D920E934FF4E0130F9306A800F00AF9E9
:10025C0080B90F23019302210291002303934FF4E1
:10026C0080620492059301A800F03CFB20B911B008
:10027C005DF804FBFFF7B4FFFFF7B2FF08B500F021
:10028C00A3F8FFF7C9FFFFF75BFFFFF7ABFF4FF4D6
:10029C000051044800F018FD4FF4FA6000F0B8F873
:1002AC00F5E700BF00100140FEE7FEE7FEE7FEE7C2
:1002BC00FEE770477047704708B500F097F808BD27
:1002CC0082B00E4B9A6942F001029A619A6902F06F
:1002DC0001020092009ADA6942F08052DA61DB691D
:1002EC0003F080530193019B054A536823F0E063AC
:1002FC0043F00073536002B0704700BF001002401F
:10030C000000014010B586B00023029303930493C0
:10031C0005930268174B9A4201D006B010BD03F545
:10032C0058439A6942F480429A619A6902F4804275
:10033C000092009A9A6942F004029A619B6903F058
:10034C0004030193019B4FF4407302930223039324
:10035C0003230593084C02A9204600F09FFB4FF4A1
:10036C008063029300230393049302A9204600F0B8
:10037C0095FBD2E7003801400008014010B5044657
:10038C000E4B18784FF47A73B3FBF0F30C4A1068E9
:10039C00B0FBF3F000F0ECFC68B90F2C01D9012094
:1003AC000AE0002221464FF0FF3000F0A9FC054B7B
:1003BC001C60002000E0012010BD00BF00000020E8
:1003CC00080000200400002008B5074A136843F019
:1003DC0010031360032000F081FC0F20FFF7CEFF09
:1003EC00FFF76EFF002008BD00200240034A116891
:1003FC00034B1B780B441360704700BF6C0000204C
:10040C0000000020014B1868704700BF6C000020F2
:10041C0038B50446FFF7F6FF0546B4F1FF3F02D0AE
:10042C00044B1B781C44FFF7EDFF401BA042FAD392
:10043C0038BD00BF0000002082B0084B1B68084A82
:10044C00A2FB03235B0A00FB03F3019300BF019B98
:10045C005A1E0192002BF9D102B0704708000020FF
:10046C00D34D6210002800F0F18170B582B00446C3
:10047C00036813F0010F2CD0994B5B6803F00C034D
:10048C00042B1DD0964B5B6803F00C03082B12D089
:10049C006368B3F5803F41D0002B55D103F1804305
:1004AC0003F504331A6822F480321A601A6822F4B5
:1004BC0080221A6037E08A4B5B6813F4803FE7D0E8
:1004CC00874B1B6813F4003F03D06368002B00F0CC
:1004DC00BF81236813F0020F75D0814B5B6813F05A
:1004EC000C0F5FD07E4B5B6803F00C03082B54D0D1
:1004FC002369002B00F08A807A4B01221A60FFF7E7
:10050C0081FF0546764B1B6813F0020F75D1FFF780
:10051C0079FF401B0228F5D903209EE1704A13682D
:10052C0043F480331360636843B3FFF76BFF0546F6
:10053C006B4B1B6813F4003FCBD1FFF763FF401BE1
:10054C006428F5D9032088E1B3F5A02F09D0644BBA
:10055C001A6822F480321A601A6822F480221A6017
:10056C00E1E703F18043A3F53C331A6842F480229F
:10057C001A601A6842F480321A60D4E7FFF742FF1F
:10058C000546574B1B6813F4003FA2D0FFF73AFF08
:10059C00401B6428F5D903205FE1514B5B6813F4D1
:1005AC00803FA5D14E4B1B6813F0020F03D023697B
:1005BC00012B40F04F814A4A136823F0F80361691C
:1005CC0043EAC1031360236813F0080F33D0A36907
:1005DC00002B5CD0434B0122C3F88024FFF712FFA1
:1005EC0005463F4B5B6A13F0020F21D1FFF70AFF60
:1005FC00401B0228F5D903202FE1394A136823F058
:10060C00F803616943EAC1031360DCE7354B002250
:10061C001A60FFF7F7FE0546314B1B6813F0020F0B
:10062C00D1D0FFF7EFFE401B0228F5D9032014E1CF
:10063C000120FFF701FF236813F0040F00F09680F0
:10064C00274BDB6913F0805F34D1254BDA6942F01C
:10065C008052DA61DB6903F080530193019B012521
:10066C00214B1B6813F4807F26D0E368012B3DD00F
:10067C00002B53D103F1804303F504331A6A22F0A3
:10068C0001021A621A6A22F004021A6233E0154B54
:10069C000022C3F88024FFF7B5FE0546104B5B6AB9
:1006AC0013F0020FC7D0FFF7ADFE401B0228F5D99F
:1006BC000320D2E00025D3E70B4A136843F4807380
:1006CC001360FFF79FFE0646074B1B6813F4807FF1
:1006DC00CBD1FFF797FE801B6428F5D90320BCE033
:1006EC000010024000004242007000405F4A136A52
:1006FC0043F001031362E36833B3FFF783FE06464E
:10070C005A4B1B6A13F0020F2FD1FFF77BFE801B95
:10071C0041F288339842F3D903209EE0052B09D08F
:10072C00524B1A6A22F001021A621A6A22F004026F
:10073C001A62E0E74D4B1A6A42F004021A621A6A16
:10074C0042F001021A62D6E7FFF75CFE0646474B01
:10075C001B6A13F0020F08D0FFF754FE801B41F206
:10076C0088339842F3D9032077E0E5B9E369002B8D
:10077C0072D03E4A526802F00C02082A56D0022B64
:10078C0017D03B4B00221A66FFF73CFE0446374B52
:10079C001B6813F0007F47D0FFF734FE001B0228C4
:1007AC00F5D9032059E0314AD36923F08053D36142
:1007BC00DCE72F4B00221A66FFF724FE05462B4B75
:1007CC001B6813F0007F06D0FFF71CFE401B0228AD
:1007DC00F5D9032041E0236AB3F5803F1AD02349B1
:1007EC004B6823F47413226A606A024313434B6010
:1007FC001F4B01221A66FFF705FE04461B4B1B68B4
:10080C0013F0007F0ED1FFF7FDFD001B0228F5D978
:10081C00032022E0154A536823F40033A1680B43EC
:10082C005360DCE7002018E0002016E0012B16D006
:10083C000E4B5B6803F48031226A914211D103F4B0
:10084C007013626A93420ED1002006E001207047BB
:10085C00012002E0012000E0002002B070BD012068
:10086C00FBE70120F9E70120F7E700BF0010024089
:10087C000000424286B0174B0FCB0DF1180C0CE95F
:10088C000F0040F20123ADF80430134B5B6803F00A
:10089C000C02082A02D0114806B07047C3F38342F9
:1008AC0018326A4412F8100C13F4803F0DD00A4B26
:1008BC005B68C3F3404318336B4413F8143C074A8A
:1008CC0002FB00F0B0FBF3F0E6E7054B03FB00F096
:1008DC00E2E700BF980F00080010024000127A00F7
:1008EC0000093D00002800F0A08070B50D460446BC
:1008FC00524B1B6803F007038B420BD24F4A136811
:10090C0023F007030B431360136803F007038B42B8
:10091C0040F08D80236813F0020F17D013F0040FF2
:10092C0004D0474A536843F4E0635360236813F0E0
:10093C00080F04D0424A536843F460535360404A52
:10094C00536823F0F003A1680B435360236813F042
:10095C00010F31D06368012B20D0022B25D0384AEF
:10096C00126812F0020F64D035494A6822F0030273
:10097C0013434B60FFF746FD0646314B5B6803F0B3
:10098C000C036268B3EB820F16D0FFF73BFD801BA4
:10099C0041F288339842F0D9032045E0284A126886
:1009AC0012F4003FE0D101203EE0254A126812F01B
:1009BC00007FD9D1012037E0204B1B6803F00703DF
:1009CC00AB420AD91D4A136823F007032B4313606B
:1009DC00136803F00703AB422DD1236813F0040F07
:1009EC0006D0174A536823F4E063E1680B43536065
:1009FC00236813F0080F07D0114A536823F460538F
:100A0C00216943EAC1035360FFF734FF0C4B5B6869
:100A1C00C3F303130B4AD35CD8400B4B18600B4B3E
:100A2C001868FFF7ABFC002070BD01207047012057
:100A3C00FAE70120F8E70120F6E700BF00200240AA
:100A4C0000100240AC0F0008080000200400002039
:100A5C00014B1868704700BF0800002008B5FFF76D
:100A6C00F7FF044B5B68C3F30223034AD35CD84003
:100A7C0008BD00BF00100240BC0F000808B5FFF70E
:100A8C00E7FF044B5B68C3F3C223034AD35CD84033
:100A9C0008BD00BF00100240BC0F000870B582B04A
:100AAC000024A4468BE07F4DAA4210D007D97E4D7E
:100ABC00AA420CD005F58035AA4208D015E0A5F560
:100ACC008015AA4203D005F57025AA4209D18A687F
:100ADC00002A00F0BF80012A00F0B780436108248F
:100AEC0003E0A5F58015AA42F1D0BEF1FF0F00F28C
:100AFC00B3800646BEF1FF0F00F2B0804FEA8C02C5
:100B0C0033680F25954023EA050304FA02F21343D8
:100B1C0033604B6813F0805F4FD0644B9A6942F09E
:100B2C0001029A619B6903F001030193019B4FEA57
:100B3C009C02951C5E4B53F825600CF003039D0042
:100B4C000F23AB4026EA03065A4B984200F08C80E8
:100B5C0003F58063984200F0898003F58063984226
:100B6C0000F080800323AB4033430232504D45F8F4
:100B7C0022304B6813F4803F7AD04F4A136843EA13
:100B8C000E0313604B6813F4003F77D04A4A536846
:100B9C0043EA0E0353604B6813F4801F74D0464A2B
:100BAC00936843EA0E0393604B6813F4001F71D0F3
:100BBC00414AD36843EA0E03D3600CF1010C0A6876
:100BCC0032FA0CF36CD0012303FA0CF302EA030E95
:100BDC0033EA0202F1D14A68122A3FF664AF122AB4
:100BEC0083D801A555F822F0DB0A0008410C000857
:100BFC004B0C00085D0C0008F70A0008F70A000807
:100C0C00F70A0008F70A0008F70A0008F70A0008B4
:100C1C00F70A0008F70A0008F70A0008F70A0008A4
:100C2C00F70A0008F70A0008F70A0008450C000844
:100C3C00510C0008CC6858E7CC68043455E7CC68F4
:100C4C00083452E7CC680C344FE7036108244CE7B6
:100C5C0000244AE7042448E7061D4BE7ACF10802E0
:100C6C0092004DE702237EE700237CE701237AE71D
:100C7C00114A136823EA0E03136083E70E4A536884
:100C8C0023EA0E03536086E70B4A936823EA0E03AC
:100C9C00936089E7084AD36823EA0E03D3608CE794
:100CAC0002B070BD00002210000031100010024094
:100CBC000000014000080140000401400AB101613C
:100CCC007047090401617047C36801EA030221EA15
:100CDC00030141EA0241016170470000074AD368F1
:100CEC0023F4E0631B041B0C000200F4E0600343DC
:100CFC0043F0BF6343F40033D360704700ED00E072
:100D0C0000B5194BDB68C3F30223C3F1070CBCF12C
:100D1C00040F28BF4FF0040C03F1040EBEF1060FB4
:100D2C0018D9033B4FF0FF3E0EFA0CFC21EA0C01E4
:100D3C0099400EFA03F322EA0303194300280BDB54
:100D4C000901C9B200F1604000F5614080F8001360
:100D5C005DF804FB0023E5E700F00F000901C9B2C0
:100D6C00024B1954F4E700BF00ED00E014ED00E075
:100D7C000138B0F1807F0BD24FF0E0235861054A67
:100D8C00F02182F823100020986107221A61704725
:100D9C000120704700ED00E07047000038B50446B4
:100DAC000268D36823F00C03D36001680A6922F44B
:100DBC007C528369C0690343206A0343E0680343A0
:100DCC00134343F400630B612168CA6822F4B052E8
:100DDC0022F00C02A36820690343606903431343A8
:100DEC00CB602268536923F4407353612268224B11
:100DFC009A4220D0FFF732FE00EB800000EB80001F
:100E0C0063689B00B0FBF3F01C4DA5FB003251094D
:100E1C00642303FB11031B013233A5FB03235B0982
:100E2C005A0002F4F07202EB011203F00F03216876
:100E3C0013448B6038BDFFF721FE00EB800000EB04
:100E4C00800063689B00B0FBF3F00C4DA5FB0032F7
:100E5C005109642303FB11031B013233A5FB03234C
:100E6C005B095A0002F4F07202EB011203F00F035B
:100E7C00216813448B60DDE7003801401F85EB517E
:100E8C0020B310B5044690F83D30D3B1022384F85A
:100E9C003D302046FFF782FF2268136923F480431C
:100EAC0013612268536923F02A0353612268D368C3
:100EBC0043F40053D36000202064012384F83D30B8
:100ECC0010BD80F83C30FFF71DFADFE701207047BA
:100EDC000C480D490D4A002302E0D458C450043389
:100EEC00C4188C42F9D30A4A0A4C002301E013605F
:100EFC000432A242FBD3FFF74FFF00F00FF8FFF7CD
:100F0C00BDF97047000000200C000020CC0F000839
:100F1C000C00002070000020FEE7000070B50026D9
:100F2C000C4D0D4C641BA410A64209D100F022F804
:100F3C0000260A4D0A4C641BA410A64205D170BDB4
:100F4C0055F8043B98470136EEE755F8043B9847B3
:100F5C000136F2E7C40F0008C40F0008C40F0008E4
:100F6C00C80F000803460244934200D1704703F8AF
:100F7C00011BF9E7F8B500BFF8BC08BC9E467047EA
:0C0F8C00F8B500BFF8BC08BC9E467047DA
:100F980002030405060708090A0B0C0D0E0F1010B2
:100FA800000000000000000000000000010203042F
:0C0FB80006070809000000000102030405
:040FC40031010008EF
:040FC8000D0100080F
:0C0FCC0001000000100000000024F400F0
:0400000508000EDD04
:00000001FF
